:020000023000CC
:10E0000077C000009CC000009AC0000098C00000CB
:10E0100096C0000094C0000092C0000090C00000B4
:10E020008EC000008CC000008AC0000088C00000C4
:10E0300086C0000084C0000082C0000080C00000D4
:10E040007EC000007CC000007AC0000078C00000E4
:10E0500076C0000074C0000072C0000070C00000F4
:10E060006EC000006CC000006AC0000068C0000004
:10E0700066C0000064C0000062C0000060C0000014
:10E080005EC000005CC000005AC0000058C0000024
:10E0900056C0000054C0000052C0000050C0000034
:10E0A0004EC000004CC000004AC0000048C0000044
:10E0B00046C0000044C0000042C0000040C0000054
:10E0C0003EC000003CC000003AC0000038C0000064
:10E0D00036C0000034C0000032C0000030C0000074
:10E0E0002EC0000041546D65676132353630000046
:10E0F00011241FBECFEFD1E2DEBFCDBF01E00CBFC8
:10E1000012E0A0E0B2E0E2E3F6EF03E00BBF02C0F2
:10E1100007900D92A231B107D9F723E0A2E1B2E056
:10E1200001C01D92AD34B207E1F769D60D9417FB1B
:10E1300001E20EBF0FEF0DBF11241FBE60C660CFFE
:10E140008093C6008091C00086FFFCCF8091C00004
:10E1500080648093C000089520E030E028173907DC
:10E1600049F0EFECF7E03197F1F700C000002F5FC6
:10E170003F4FF4CF0895CF93DF93EC01C60FD11D2D
:10E18000CE01A0E0B0E0ABBFFC018791882319F07D
:10E190002196D6DFF5CFDF91CF9108958DE0D0DFC6
:10E1A0008AE0CECFE8DFFACFCF93DF93EC018991FD
:10E1B000882311F0C5DFFBCFDF91CF910895CF9376
:10E1C000C82F982F92959F7080E3890F8A3310F0A3
:10E1D00087E3890FB5DFCF7080E38C0F8A3310F0AF
:10E1E00087E38C0FCF91ACCF0F931F93CF93DF9327
:10E1F000EC018B01853691051CF46330710544F008
:10E20000CE0164E670E00F9491FA80E3860F98DF08
:10E21000CB30D1051CF40230110564F0CE0164E668
:10E2200070E00F9491FA6AE070E00F9491FA80E345
:10E23000860F86DFCE016AE070E00F9491FA805D70
:10E24000DF91CF911F910F917BCF0F931F93E0919F
:10E250001402F09115029B01AC01225031094109D1
:10E26000510986819781A085B1850297A109B109DD
:10E27000281739074A075B0768F4A281B0E00F94BA
:10E28000CDFA0289138924893589600F711F821F95
:10E29000931F03C060E070E0CB011F910F910895C0
:10E2A0000F931F93CF93DF93DC01E0911402F09161
:10E2B000150211961C921E9214966D917D918D916E
:10E2C0009C911797613071058105910559F106817F
:10E2D000178120853185601771078207930710F534
:10E2E000611571058105910539F42081233021F4F0
:10E2F0006685778580899189ED01688779878A8726
:10E300009B87611571058105910511F09EDF04C0A1
:10E3100066857785808991896C877D878E879F87C1
:10E3200080E001C081E0DF91CF911F910F910895AE
:10E330000F931F93CF93DF9300D01F92CDB7DEB71B
:10E34000623071058105910508F457C0E09114020F
:10E35000F0911502068117812085318560177107BC
:10E360008207930708F049C0AB01BC01808182306D
:10E3700019F08330E9F041C09A013327220F331F8F
:10E38000452F562F672F772782859385A485B585DE
:10E39000480F591F6A1F7B1F02E010E0CE01019653
:10E3A00094D481112AC069817A8180E090E029C0EB
:10E3B0009A012F773327220F331F220F331F97E045
:10E3C00076956795579547959A95D1F78285938568
:10E3D000A485B585480F591F6A1F7B1F04E010E014
:10E3E000CE01019672D4811108C089819A81AB81D6
:10E3F000BC81BC01CD019F7004C061E070E080E091
:10E4000090E00F900F900F900F90DF91CF911F91A0
:10E410000F910895CF92DF92EF92FF920F931F9387
:10E42000CF93DF93EC016A017B0102E010E02EEF55
:10E4300031E04BD4811124C08881998185359A4A75
:10E4400009F526E330E0B701A601CE013ED48111E3
:10E4500007C0888199818634914411F480E015C009
:10E4600002E010E022E530E0B701A601CE012DD494
:10E4700081110AC0888199818634914429F4EECFB4
:10E4800083E003C082E001C081E0DF91CF911F9162
:10E490000F91FF90EF90DF90CF9008952F923F92D1
:10E4A0004F925F926F927F928F929F92AF92BF92A4
:10E4B000CF92DF92EF92FF920F931F93CF93DF9350
:10E4C000CDB7DEB7A4970FB6F894DEBF0FBECDBFB1
:10E4D0001092150210921402009709F4C5C01C0195
:10E4E00055D380FDC3C040E050E0BA01CE01019693
:10E4F00091DF8130E9F400E110E02EEB31E040E003
:10E5000050E0BA01CE010196E0D3882311F081E0FA
:10E51000AEC08D81811102C087E0A9C049845A84B0
:10E520006B847C84B301A201CE01019673DF03C02A
:10E53000412C512C3201833051F38111EDCF04E293
:10E5400010E02DE030E0B301A201CE010196BDD371
:10E550008111DDCF2A853B8540E050E02115310552
:10E560004105510521F4288D398D4A8D5B8DAC8193
:10E57000B0E00F94CDFA6B017C014A815B8160E0D1
:10E5800070E0440E551E661E771EF10142865386CA
:10E5900064867586298122838D809E8095828482FF
:10E5A0008F819885A0E0B0E00097A105B10521F426
:10E5B0008C899D89AE89BF8934E0969487943A9579
:10E5C000E1F7A12CB12C841B950BA60BB70B8C1972
:10E5D0009D09AE09BF09BC01CD01681979098A09F5
:10E5E0009B0930E040E050E0AFD7DA01C901029664
:10E5F000A11DB11DF10186839783A087B187873F55
:10E60000FFE09F07A105B10508F486CF873F9F4F24
:10E61000A105B10510F083E001C082E0F101808323
:10E62000833029F488A199A1AAA1BBA107C0D70171
:10E63000C601840D951DA61DB71DF101868797871C
:10E64000A08BB18B840C951CA61CB71C8C0C9D1C3C
:10E65000AE1CBF1CF101828A938AA48AB58A1182FA
:10E66000309215022092140280E001C082E0A4964C
:10E670000FB6F894DEBF0FBECDBFDF91CF911F91D3
:10E680000F91FF90EF90DF90CF90BF90AF909F9051
:10E690008F907F906F905F904F903F902F90089554
:10E6A0004F925F926F927F928F929F92BF92CF9282
:10E6B000DF92EF92FF920F931F93CF93DF93CDB72B
:10E6C000DEB7EC970FB6F894DEBF0FBECDBFC0909B
:10E6D0001402D0901502C114D10409F434C1F6011A
:10E6E00011829E012F5C3F4F3CA32BA39C0179011B
:10E6F000F90180812F5F3F4F8032C9F38F3209F4D7
:10E7000079011DA21EA21FA218A6F70180818132E5
:10E7100018F0A0E2BA2E60C0CE018196C1DD198248
:10E72000882309F4E6C018C190E080E028E031E0D9
:10E73000380FD701A80FB11D8C91813208F057C056
:10E74000E30EF11C91E0813208F090E09387CE0156
:10E750008196A6DD8111C4C029A13AA12F7033276B
:10E76000F5E0220F331FFA95E1F74DA55EA56FA5E1
:10E7700078A900E210E0CE010196A7D2811192C0E3
:10E780008981882309F4AEC08C8583FD4CC00BA120
:10E790001CA19E012F5F3F4FD801B801655F7F4FDD
:10E7A000A617B707C9F5F80193859111A2C084FF98
:10E7B0009EC08D899E89A0E0B0E0DC019927882762
:10E7C0004B8D5C8D60E070E0842B952BA62BB72BD6
:10E7D0008DA39EA3AFA3B8A7EBA1FCA1DF01CF013E
:10E7E0000B96A817B90709F49FCFBD92FACF8F32C5
:10E7F00009F4A6CF8E3209F4A8C0921708F0A0CF72
:10E800004FE9480F4A3108F48052DF01A90FB11DCA
:10E810008C939F5F832F8BCFF90141919F019D9135
:10E82000491709F4BDCF09A11AA10F5F1F4F09F4C1
:10E8300059C08DA59EA5AFA5B8A90097A105B105A2
:10E8400009F450C098012F703327232B09F045C0DD
:10E8500080901402909015020196A11DB11D8DA704
:10E860009EA7AFA7B8AB69A57AA58BA59CA5F40117
:10E870006115710581059105B9F0228130E0A9018A
:10E88000415051099801E4E036952795EA95E1F762
:10E8900024233523232B09F54BDD623071058105D7
:10E8A000910540F481E058C08481958108171907CB
:10E8B000C8F413C0F40146805780608471846415E5
:10E8C00075058605970570F469A77AA78BA79CA79D
:10E8D000BCDC6DA77EA78FA798AB1AA309A33CCF7A
:10E8E0008330D1F5EBA1FCA18385811134C084E094
:10E8F00033C08981882379F18C8584FD2CC08D8972
:10E900009E89A0E0B0E0DC01992788274B8D5C8DC3
:10E9100060E070E0842B952BA62BB72BF601868F39
:10E92000978FA0A3B1A38D8D9E8DAF8DB8A1828F3F
:10E93000938FA48FB58F168A178A108E118E81E05F
:10E94000818380E009C086E007C0283009F0F8CE56
:10E9500098E02BE05FCF83E0EC960FB6F894DEBF33
:10E960000FBECDBFDF91CF911F910F91FF90EF9020
:10E97000DF90CF90BF909F908F907F906F905F902F
:10E980004F9008954F925F926F927F928F929F92D5
:10E99000AF92BF92CF92DF92EF92FF920F931F93AD
:10E9A000CF93DF934C016B015A01C0911402D091B7
:10E9B0001502FA0111821082209709F49EC0898104
:10E9C00080FF9DC08A8D9B8DAC8DBD8D4E895F89EA
:10E9D000688D798D841B950BA60BB70BA60160E0A3
:10E9E00070E084179507A607B70708F46C01340197
:10E9F000412C32E0532EC114D10409F479C08E8920
:10EA00009F89A88DB98DAC01BD015170662777270C
:10EA1000452B462B472BD1F5FA80FA94AC01BD016A
:10EA200029E076956795579547952A95D1F7F42271
:10EA3000C1F4892B8A2B8B2B29F46E8D7F8D88A1B5
:10EA400099A105C06AA17BA18CA19DA171DC623056
:10EA500071058105910508F44DC06AA37BA38CA3C1
:10EA60009DA36AA17BA18CA19DA1EFDB611571051E
:10EA70008105910509F43EC0DC01CB018F0D911D8C
:10EA8000A11DB11D8EA39FA3A8A7B9A72E893F8959
:10EA90003170C201821B930B76018C159D0508F421
:10EAA0007C014EA15FA168A579A58114910411F0A4
:10EAB000C30102C080E090E0870107D181111AC034
:10EAC0008E899F89A88DB98D8E0D9F1DA11DB11DA9
:10EAD0008E8B9F8BA88FB98F6E0C7F1CCE18DF0892
:10EAE000F50180819181E80EF91EF182E08283CFE9
:10EAF00080E006C0198281E003C086E001C085E0A5
:10EB0000DF91CF911F910F91FF90EF90DF90CF9009
:10EB1000BF90AF909F908F907F906F905F904F903D
:10EB20000895FF920F931F93CF93DF93C82FD42F95
:10EB3000152F062FF72E87FF08C040E050E0BA01DE
:10EB400087E7EFDF8230E0F4CF7719D18C2F1CD12B
:10EB50008F2D1AD1802F18D1812F16D18D2F14D13E
:10EB6000C03421F0C83421F487E803C085E901C02E
:10EB700081E00AD1CAE007D187FF02C0C150D9F7AE
:10EB8000DF91CF911F910F91FF900895CF92DF9267
:10EB9000EF92FF920F931F93CF93DF9300D01F92BA
:10EBA000CDB7DEB7DFD014E6E2D01150E9F71AE0B6
:10EBB000E9D01150E9F740E050E0BA0180E4B1DF5C
:10EBC000813009F055C04AEA51E060E070E088E425
:10EBD000A8DF813049F58E010F5F1F4F6E0185E080
:10EBE000C80ED11C7801CFD0F70181937F01EC15BD
:10EBF000FD05C9F78B81813009F03AC08C818A3AD2
:10EC000009F036C090E1E92E97E2F92E40E050E09D
:10EC100060E070E489EE85DF882319F1A8D0F1E087
:10EC2000EF1AF10899F724C040E050E0BA0189EEEC
:10EC300078DF823018F011E001E402C012E009EE42
:10EC400080E1E82E87E2F82E40E050E0BA01802F04
:10EC500068DF882321F18BD0F1E0EF1AF108A1F7EA
:10EC600007C040E050E0BA018AE75BDF882311F07B
:10EC700010E00BC088D0F80181938F01CE16DF061B
:10EC8000C9F7898186FD09C014E0109316027AD075
:10EC900081E0112369F080E00BC01CE0F6CF40E07A
:10ECA00052E060E070E080E53CDF8111E1CFEDCF24
:10ECB0000F900F900F900F90DF91CF911F910F91B8
:10ECC000FF90EF90DF90CF900895CF92DF92EF9278
:10ECD000FF920F931F93CF93DF93D82EC92E790104
:10ECE0008091160283FD07C089E0440F551F661FFF
:10ECF000771F8A95D1F781E514DF882311F0C1E0F1
:10ED000026C0C0E4DCE93FD08F3F19F42197D9F742
:10ED1000F6CF8E3FA1F7C2E0D2E0C01BD10BCE19D7
:10ED2000DF09E114F10419F4ED2CFC2C05C02BD003
:10ED300081E0E81AF108F5CF26D0F70181937F0131
:10ED400001501109C9F71FD02197E9F7C0E01AD087
:10ED50008C2FDF91CF911F910F91FF90EF90DF905B
:10ED6000CF9008959D9A229A219A2B9A089580EA2D
:10ED700031973197319700008A95D1F7089502D0E5
:10ED8000A59801C0A59A8FEF98E087FD2A9A87FF82
:10ED90002A98880F1B998395299A29989A95A9F7FB
:10EDA0000895FB018BBF83E080935700E895809125
:10EDB000570080FDFCCF81E180935700E8950895CE
:10EDC0000F921F928BBFFB01DA0190E80D901D900E
:10EDD00081E080935700E89532969A95B9F7FB0148
:10EDE00085E080935700E8958091570080FDFCCF27
:10EDF00081E180935700E8951F900F900895CF937D
:10EE0000DF93CDB7DEB7C752D1400FB6F894DEBF5F
:10EE10000FBECDBF01E20EBF0FEF0DBF84B7F89458
:10EE2000A89514BE80916000886180936000109264
:10EE300060007894279A2F9A8091C0008260809316
:10EE4000C00080E18093C40088E18093C10000008D
:10EE500000E010E0C12CD12C7601B7EC8B2EBBE189
:10EE60009B2EA12CB12C8091C00087FD25C00115DF
:10EE7000110511F525E02A95F1F700003FEFC31ABF
:10EE8000D30AE30AF30A91E080E0A1E2CA16AEE4F5
:10EE9000DA06E104F10408F490E0092F182FC70105
:10EEA000B601A501940150D3672B682B692BD9F6C5
:10EEB00085B1805885B9D7CF98012F5F3F4F21305A
:10EEC000310509F0BBC2CC5DDE4F19821882C452F5
:10EED000D14000E010E0312CB12C812C912CC05E8F
:10EEE000DE4F188219821A821B82C052D140412CF7
:10EEF000512C320140E050E080E021303105E1F05A
:10EF0000CC24C394A2E1DA2EAAE7EA2EF12C909148
:10EF1000C00097FD11C0B1E0CB1AD108E108F1089B
:10EF2000B1F7EBBEF601C790D690CD20C09441F367
:10EF3000EE27FF270994E4CF9091C600CC5DDE4F09
:10EF400028813981C452D1402F5F3F4FCC5DDE4FC5
:10EF500039832883C452D140913279F42A30310563
:10EF600008F055C00F5F1F4F0330110509F051C065
:10EF700000E010E0222423945FC0833029F120F4C4
:10EF8000813099F050F017C0853069F118F1863062
:10EF900009F04CC000E010E046C000E010E09B31FA
:10EFA00009F4AEC220E030E0A8CF00E010E0B926BE
:10EFB000392E82E0F7CF00E010E0492F50E0542FC7
:10EFC0004427B92683E0EECF00E010E0492BB926B4
:10EFD00084E0E8CF9E3009F097C2B92600E010E047
:10EFE000812C912C12C000E010E094012F5F3F4F64
:10EFF000E1E0F0E0EC0FFD1FE80DF91D9083B9266C
:10F000004217530709F483C2490185E0CBCF00E0E2
:10F0100010E08330D9F208F47DC2853031F308F472
:10F020007EC2863029F49B117AC205C000E010E050
:10F03000873009F0B7CF212C2981233109F4DBC0B7
:10F0400068F5263009F4CAC000F5223009F4D1C0B1
:10F05000233009F466C0213009F0BBC11A8288E070
:10F060008B8381E48C8386E58D8382E58E8389E4BE
:10F070008F8383E5888780E589878FE58A8782E3A8
:10F080008B877BE0E72EF12CA9C1213109F456C012
:10F0900008F096C0203109F4ACC09BC1283109F4B6
:10F0A00068C048F4253109F4A6C008F441C12631EE
:10F0B00009F43EC18EC12A3109F44EC008F46EC075
:10F0C0002B3109F43EC02D3109F083C19D8190336D
:10F0D00039F48F818823B1F08130B1F488E917C009
:10F0E000892F807599F0903521F489E0E0E0F0E017
:10F0F00005C0983559F4E3E0F0E089E080935700CB
:10F10000849105C08EE103C081E001C080E01A82D5
:10F110001B829C831D828E831F82E7E0EE2EF12CE2
:10F120005DC1EA81E059E33028F4F0E0EF5FFD4F84
:10F13000808101C080E01A828B833EC02224239408
:10F1400058C08D81882321F0813021F488E924C0C2
:10F150008EE122C081E020C01A82E1E0F0E089E087
:10F160008093570084918B831C8264E0E62EF12CFF
:10F1700035C18B81803551F48C81883019F4E2E0FF
:10F18000F0E006C089E0E0E0F0E003C0E3E0F0E09A
:10F1900089E08093570084911A82E5CF8D81836C3A
:10F1A00099E0E1E0F0E0082E90935700E89507B66B
:10F1B00000FCFDCF1A821B8253E0E52EF12C0EC11C
:10F1C00080EC8A8342E0E42EF12CC05EDE4F188290
:10F1D00019821A821B82C052D14000C16A817B8190
:10F1E0008C819D81D3D12B013C01440C551C661CA4
:10F1F000771C1A82F0C0CA80DB80DC24CD24DC249A
:10F20000233109F05DC0C05EDE4F88819981AA81FB
:10F21000BB81C052D1408115E0EC9E07E3E0AE0710
:10F22000B105E8F423E0FC01A0935B0020935700B4
:10F23000E89507B600FCFDCFC05EDE4F888199815E
:10F24000AA81BB81C052D1409F5FAF4FBF4FC05E0C
:10F25000DE4F88839983AA83BB83C052D1408B85BC
:10F26000DE011196B301A20121E01B963C911B9790
:10F2700090E0932B0C01FA0160935B002093570000
:10F28000E89511244E5F5F4F6F4F7F4F92E0C91A90
:10F29000D1081296C114D10421F01A968C911A97B4
:10F2A000E4CFA5E0F20160925B00A0935700E895DF
:10F2B00007B600FCFDCF81E180935700E89534C08C
:10F2C000D301C201B695A795979587955C01FE017C
:10F2D0003B96CA5DDE4FF983E883C652D140E12CEC
:10F2E000F12CEC14FD04A9F0CA5DDE4FA881B981B0
:10F2F000C652D1406D91CA5DDE4FB983A883C65214
:10F30000D140C7018A0D9B1D84D1BFEFEB1AFB0AC8
:10F31000E8CFA70160E070E0440F551F661F771F1C
:10F32000440D551D661D771D1A822A013B0153C0ED
:10F330008A819B819827892798277C01E3E0EE0E3C
:10F34000F11C1A822431C1F4DE0111966BBEF20168
:10F350002791369112962C931297FD0134961396AD
:10F360003C93139722E0420E511C611C711C0297C2
:10F370001296009759F72BC0FE0131969F01280F76
:10F38000391FB301A20141BDA52EB62EC72EDD2423
:10F39000A2BC4F5F5F4F6F4F7F4FF89AA0B5A2831B
:10F3A00031962E173F0779F7AC014150510960E0C3
:10F3B00070E04F5F5F4F6F4F7F4F440E551E661ECC
:10F3C000771EE3E0F0E0EC0FFD1FE80FF91F10825D
:10F3D00005C080EC8A8392E0E92EF12C8BE10F943A
:10F3E000A0F0832D0F94A0F08F2D0F94A0F08E2D00
:10F3F0000F94A0F085E1B32CB826BE248EE00F94C4
:10F40000A0F0BF24CE0101966C01E80EF91EEC14A9
:10F41000FD0441F0D601AD906D018A2D0F94A0F04E
:10F42000BA24F5CF8B2D0F94A0F0339485B180587A
:10F4300085B920E030E0222009F45CCD8FEF9FE019
:10F44000E0D0803F09F04EC087E192E027D884E009
:10F4500092E026D9811146C08DE00F94A0F08AE099
:10F460000F94A0F0C12CD12C760185B1805885B9BC
:10F4700082E390E00F94ACF0C701B60192DC40E06B
:10F4800051E06FEF70E089E492E0B4D0AE01425EEB
:10F490005E4F60E071E089E492E074DAC25EDE4FB4
:10F4A00088819981CE51D140892B29F049E452E0DD
:10F4B000C701B60185DCBFEFDB1AEB0AFB0AC114FA
:10F4C000E0EEDE06E3E0EE06F10479F68DE00F945F
:10F4D000A0F08AE00F94A0F0109200026FEF8FEF7F
:10F4E0009FE097D000008091C0008D7F8093C00086
:10F4F00081E180935700E895EE27FF270994FFCF1D
:10F500008BE1B82E81E04ECD00E010E008C04A014A
:10F5100086E048CD813009F44ACD08F04ECD80E038
:10F5200041CD97FB072E16F4009406D077FD08D046
:10F530003ED007FC05D03EF4909581959F4F0895ED
:10F54000709561957F4F0895A1E21A2EAA1BBB1BEF
:10F55000FD010DC0AA1FBB1FEE1FFF1FA217B3079F
:10F56000E407F50720F0A21BB30BE40BF50B661FB5
:10F57000771F881F991F1A9469F760957095809579
:10F5800090959B01AC01BD01CF0108956927962795
:10F59000692778278727782708951DD0A59F900D84
:10F5A000B49F900DA49F800D911D11240895AA1B56
:10F5B000BB1B51E107C0AA1FBB1FA617B70710F05E
:10F5C000A61BB70B881F991F5A95A9F78095909590
:10F5D000BC01CD010895A29FB001B39FC001A39FBC
:10F5E000700D811D1124911DB29F700D811D11247C
:10F5F000911D0895DC0101C06D9341505040E0F72A
:10F600000895F999FECF92BD81BDF89A992780B5EA
:10F610000895262FF999FECF1FBA92BD81BD20BD56
:10F620000FB6F894FA9AF99A0FBE01960895F894D5
:02F63000FFCF0A
:10F63200010F020A6669726D776172652E62696EE8
:02F642000000C6
:040000033000E000E9
:00000001FF
